:10000000F0FE022071040000932F0000932F0000E7
:10001000932F0000932F0000932F0000000000009A
:100020000000000000000000000000003FC00200CF
:10003000932F000000000000CBC00200932F0000AF
:10004000932F0000932F0000932F0000932F0000A8
:10005000932F0000932F0000932F0000932F000098
:10006000932F0000932F0000932F0000932F000088
:10007000932F0000932F0000932F0000932F000078
:10040000FFFFFFFFFFFFFFFFFFFFFFFFFEFFFFFFFD
:0404100000000000E8
:10042000401E00BF00BF00BF0028F9DC00BF00BFB6
:1004300000BF00BF70470000000000000000000087
:100440004DF8881CF1EE101A02B42DED200A5DF86B
:10045000041C70474DF8041CBDEC200A02BCE1EE00
:10046000101A5DF8881C7047B0FA80F070470000E1
:100470000F481049104A4FF0080333B140F8042BDD
:1004800041F8042BA3F10103F7E7EFF3088080F3B1
:100490000988EFF3148040F0020080F31488BFF362
:1004A0006F8F00F017B8000000000000000000008F
:1004B00080E100E080E200E0FFFFFFFF00B581B0D7
:1004C00000F00AF8012001B000BD00F0F9BB00F017
:1004D000A3BAFEE700F0A6BF00F0AABF2DE9F047DF
:1004E0000446DFF8D807D0F8008082B098F84000C2
:1004F000C00709D50020019000900023224641F258
:100500001001012001F098F8D8F89853D8F81C9001
:10051000A868DFF8A8160027884218BF38204BD1FA
:1005200004F10C00102838BF10200F30040901F02E
:10053000B4F96E69D5F814A0240101E0B246B6689A
:1005400066B3AE6101F0B7F901F0A7F9A869864278
:1005500002D06E69B2460EB33068A042EED3001BE3
:10056000102806D3311908604D60B0688860346087
:1005700000E0B168686986420CBF6961CAF808107A
:10058000D9F80C0030817781756006F10C0730686E
:10059000E96A8019401E814238BFE8626869A86133
:1005A0006869E86168692862E8686862E868A86262
:1005B00001F081F917B9042002F0A9F898F8400079
:1005C000C00709D500200190009000233A4641F26F
:1005D0001001022001F030F8384602B0BDE8F08783
:1005E0002DE9F0470446DFF8D406D0F8009082B039
:1005F00099F84000C0078A4609D500200190009074
:100600000023224641F21F01012001F015F8D9F81C
:100610009873D9F81C00DFF8A41501904FF000087A
:10062000B868884218BF382055D104F10C00102852
:1006300038BF10200F30040901F02FF924017D6923
:100640000AEB04000C380090AAF10C0600E0AD683B
:100650008DB3BD6101F02FF901F01FF9B869854232
:1006600001D07D693DB3296805F11000864222BFA3
:100670006818009A9042EAD3721B091B891A102944
:100680002A6006D3009A11605760A9689160AA6039
:1006900001E0AA680C193460B2600199C96831811F
:1006A000A6F80A807760D04629684819F96A401E82
:1006B000814238BFF8627869B8617869F861786911
:1006C0003862F8687862F868B86201F0F4F8B8F156
:1006D000000F02D1042002F01AF899F84000C00778
:1006E00009D50020019000900023424641F21F01ED
:1006F000022000F0A1FF404602B0BDE8F087DFF81D
:10070000BC050068D0F8980370472DE9F04704460F
:10071000DFF8A805D0F8008082B098F84000C00744
:1007200009D50020019000900023224641F21201D9
:10073000012000F081FFD8F89853D8F81C90A868E1
:10074000DFF878140027884218BF382052D104F10E
:100750000C00102838BF10200F30040901F09DF85C
:100760006E69D5F814A0240101E0B246B6689EB3C4
:10077000AE6101F0A0F801F090F8A869864202D0BD
:100780006E69B24646B33068A042EED3011B102911
:1007900006D3301901604560B1688160346001E0C2
:1007A0000446B06869698E420CBF6861CAF80800E7
:1007B000D9F80C0030817781756006F10C0730683C
:1007C000E96A8019401E814238BFE862A4F10C0139
:1007D00006F10C0002F0DAFB6869A8616869E8615B
:1007E00068692862E8686862E868A86201F063F8EE
:1007F00017B9042001F08BFF98F84000C00709D515
:1008000000200190009000233A4641F2120102209C
:1008100000F012FF384602B0BDE8F0872DE9F0473E
:100820000546DFF89804D0F8008082B098F84000C0
:10083000C0070C4609D500200190009023462A46A7
:1008400041F21301012000F0F7FED8F81C90A868CF
:10085000DA490027884218BF382052D104F10C0031
:10086000102838BF10200F30040901F016F86E6907
:10087000D5F814A0240101E0B246B6689EB3AE617B
:1008800001F019F801F009F8A869864202D06E69F2
:10089000B24646B33068A042EED3011B102906D3FE
:1008A000301901604560B1688160346001E0044640
:1008B000B06869698E420CBF6861CAF80800D9F84F
:1008C0000C0030817781756006F10C073068E96AA9
:1008D0008019401E814238BFE862A4F10C0106F184
:1008E0000C0002F053FB6869A8616869E8616869F7
:1008F0002862E8686862E868A86200F0DCFF17B95F
:10090000042001F004FF98F84000C00709D500203A
:100910000190009000233A4641F21301022000F0BA
:100920008BFE384602B0BDE8F087F0B50446DFF82C
:100930008C03056883B095F84000C0070E46174643
:1009400009D50020019000903B46324641F2140147
:10095000012000F071FEF01900090001206106F18C
:100960000F0000090001E060E06221694460091A9B
:100970000160002181606061A061E061206200F09F
:100980008CFFD5F88C0370B94FF463702844C5F818
:100990008C034FF463702844C5F890030020A5F839
:1009A0009403A5F89603D5F8900300682060D5F865
:1009B00090130C60D5F8901361604460B5F894030F
:1009C000401CA5F8940300F076FF7C48A06095F8E1
:1009D0004000C00709D50020019000900023224666
:1009E00041F21401022000F027FE204603B0F0BDC2
:1009F00030B50F3005090C462D0181B03021284655
:100A000002F0C4FAA4F1300205F130012846FFF7E4
:100A10008CFF284601B030BD2DE9F0410446DFF8D7
:100A20009C02056882B095F84000C00709D50020F7
:100A3000019000900023224641F21501012000F0B0
:100A4000FBFDA4B9012001F062FE95F84000C0074B
:100A500009D50020019000900023012241F21501E8
:100A6000022000F0E9FD012002B0BDE8F08154F859
:100A7000086C5249B068884214D0382001F047FE13
:100A800095F84000C00709D5002001900090002390
:100A9000382241F21501022000F0CEFD382002B0CC
:100AA000BDE8F081EA69D26834F8040C92B2904251
:100AB0001CBF4FF6FF71884206D0032001F027FECD
:100AC000032002B0BDE8F08100F0E7FE7769A4F1F1
:100AD0000C0809E00746F76100F0EDFE00F0DDFECE
:100AE000F069874218BF7769706910B170698045F5
:100AF00019D2776954F80C0C21180C39B9420DD170
:100B00003968081844F80C0C0021B86844F8040C43
:100B10000022002007C7C6F8148031E044F8047CA6
:100B2000C6F814802CE0B868804501D30028D1D1E4
:100B3000014654F80C0C22180C3A8A420CD1096870
:100B4000081844F80C0C0C21B868806844F8040CB0
:100B5000B86802F01BFA01E044F8041C3868391840
:100B600041450BD154F80C1C081838600C2154F87E
:100B7000040CB860404602F009FA01E0C7F80880AA
:100B80007069B0617069F06170693062F0687062BC
:100B9000F068B06200F08FFE95F84000C00709D5FC
:100BA0000020019000900023002241F21501022054
:100BB00000F042FD002002B0BDE8F08170656D6C70
:100BC0002DE9F04305463D48D0F8008083B098F801
:100BD0004000C0070F4609D5002001900090002377
:100BE0003A4641F21701012000F026FDA868DFF81F
:100BF0002C180026884218BF38204BD107F10C0072
:100C0000102838BF10200F30070900F046FE6C692D
:100C1000D5F814903F0101E0A146A46864B3AC612B
:100C200000F049FE00F039FEA869844202D06C69E8
:100C3000A1460CB32068B842EED3C01B102806D3DF
:100C4000E11908604D60A0688860276000E0A16835
:100C5000686984420CBF6961C9F80810D8F85C0063
:100C600020816681656004F10C062068E96A00193C
:100C7000401E814238BFE8626869A8616869E8611E
:100C800068692862E8686862E868A86200F013FE94
:100C900016B9042001F03BFD98F84000C00709D5C3
:100CA0000020019000900023324641F217010220FB
:100CB00000F0C2FC304603B0BDE8F0830004FF1F23
:100CC0002DE9F0430746DFF85807D0F8008083B0DD
:100CD00098F84000C00709D500200190009000233B
:100CE0003A4641F21601012000F0A6FCD8F89853CC
:100CF000DFF82817A8680026884218BF38204BD193
:100D000007F10C00102838BF10200F30070900F041
:100D1000C4FD6C69D5F814903F0101E0A146A468B8
:100D200064B3AC6100F0C7FD00F0B7FDA869844270
:100D300002D06C69A1460CB32068B842EED3C01B48
:100D4000102806D3E11908604D60A068886027600C
:100D500000E0A168686984420CBF6961C9F80810A5
:100D6000D8F85C0020816681656004F10C0620687B
:100D7000E96A0019401E814238BFE8626869A861CB
:100D80006869E86168692862E8686862E868A8627A
:100D900000F091FD16B9042001F0B9FC98F840006C
:100DA000C00709D50020019000900023324641F28F
:100DB0001601022000F040FC304603B0BDE8F0838D
:100DC0002DE9F0470446DFF85806D0F800A082B0BD
:100DD0009AF84000C0070D4609D500200190009008
:100DE0002B46224641F22601012000F025FCDAF8CC
:100DF0009873102C4FF0000838BF102435B1681ECE
:100E0000054218BF0C206ED1102D00D21025B868F5
:100E1000DFF80816884218BF382064D104F10C00AE
:100E2000102838BF10200F30040900F036FD7E690D
:100E3000681E24016FEA000900E0B668002E42D067
:100E4000BE6100F038FD00F028FDB869864201D08F
:100E50007E69C6B3711901F10C0209EA0202921B04
:100E60000C3A202A05D23C3109EA0101881BA0F185
:100E70000C023168101981423046DED30260B61888
:100E8000891A8268B2600B1B102B06D332191360CB
:100E90005760B1689160B26000E00C4634607969D7
:100EA0008E420CBF7A618260DAF85C003081A6F86D
:100EB0000A80776006F10C083068F96A8019401ED4
:100EC000814238BFF8627869B8617869F8617869F9
:100ED0003862F8687862F868B86200F0ECFCB8F143
:100EE000000F02D1042001F012FC9AF84000C00764
:100EF00009D50020019000900023424641F22601CE
:100F0000022000F099FB404602B0BDE8F0872DE9D1
:100F1000F0470746DFF80805D0F800A082B09AF83D
:100F20004000C0070C46154609D5002001900095E9
:100F300023463A4641F22701012000F07DFB102CA8
:100F40004FF0000838BF102435B1681E054218BFA5
:100F50000C206ED1102D00D21025B868DFF8BC141B
:100F6000884218BF382064D104F10C00102838BF23
:100F700010200F30040900F090FC7E69681E2401E7
:100F80006FEA000900E0B668002E42D0BE6100F0B2
:100F900092FC00F082FCB869864201D07E69C6B33B
:100FA000711901F10C0209EA0202921B0C3A202A83
:100FB00005D23C3109EA0101881BA0F10C0231681D
:100FC000101981423046DED30260B618891A826851
:100FD000B2600B1B102B06D3321913605760B16837
:100FE0009160B26000E00C46346079698E420CBFBB
:100FF0007A618260DAF85C003081A6F80A80776056
:1010000006F10C083068F96A8019401E814238BF29
:10101000F8627869B8617869F86178693862F86867
:101020007862F868B86200F046FCB8F1000F02D1AF
:10103000042001F06CFB9AF84000C00709D500209D
:10104000019000900023424641F22701022000F067
:10105000F3FA404602B0BDE8F087D0B5DFF8C00330
:1010600004684FF47D7082B02044C4F8980304F201
:101070002446D4F80002871B94F84000C00709D525
:101080000020019000903B46324641F214010120BD
:1010900000F0D2FAE01900F2244000090001C4F87F
:1010A000040406F10F0000090001C4F80004C4F8AC
:1010B0002004D4F80414091A0160002181604FF45F
:1010C0007D7121444160C4F80804C4F80C04C4F8DC
:1010D0001004C4F8140400F0E0FBD4F88C0370B9D9
:1010E0004FF463702044C4F88C034FF463702044C1
:1010F000C4F890030020A4F89403A4F896034FF4D6
:101100007D71D4F89003D4F890230068C4F8F403F8
:1011100021441160D4F89013C4F8F8134FF47D7192
:1011200021444160B4F89403401CA4F8940300F0F7
:10113000C2FBDFF8E802C4F8FC0394F84000C007E3
:101140000BD500200190009000234FF47D702218F1
:1011500041F21401022000F06FFA002002B0D0BD6D
:10116000F0B50446DFF8B802056881B019B9D5F8C2
:101170008C63F76806E051F80C0C51F8086C0844D1
:10118000A0F10C0700F089FB706901E039680F4499
:10119000326997421DD2E3683A899BB29A42F5D1EF
:1011A00000E0806868B1B8420BD2806848B1B842AC
:1011B00007D2806828B1B84203D2806808B1B8422B
:1011C000EFD3B842E2D000F076FB07F10C0001B09B
:1011D000F0BD3668F7684FF4637028448642D3D177
:1011E00000F069FB002001B0F0BD10B120F8021C36
:1011F00001207047C96820F8041C7047D16820F8A6
:10120000041C002070472DE9F0430546DFF810026A
:10121000D0F8008083B098F84000C0070F4609D589
:1012200000200190009000233A4641F21A0101206B
:1012300000F002FAA86879490026884218BF3820D1
:1012400052D107F10C00102838BF10200F300709C9
:1012500000F023FB6C69D5F814903F0101E0A14632
:10126000A4689CB3AC6100F026FB00F016FBA869F3
:10127000844202D06C69A14644B32068B842EED3E0
:10128000C11B102906D3E01901604560A168816087
:10129000276001E00746A06869698C420CBF68615D
:1012A000C9F80800D8F85C0020816681656004F107
:1012B0000C062068E96A0019401E814238BFE862C6
:1012C000A7F10C0104F10C0001F060FE6869A8614F
:1012D0006869E86168692862E8686862E868A86225
:1012E00000F0E9FA16B9042001F011FA98F840006C
:1012F000C00709D50020019000900023324641F23A
:101300001A01022000F098F9304603B0BDE8F083DE
:101310002DE9F04307464248D0F8008083B098F8A2
:101320004000C00709D500200190009000233A46F4
:1013300041F21901012000F07FF9D8F8985337499C
:10134000A8680026884218BF382052D107F10C0047
:10135000102838BF10200F30070900F09EFA6C6982
:10136000D5F814903F0101E0A146A4689CB3AC619C
:1013700000F0A1FA00F091FAA869844202D06C69E9
:10138000A14644B32068B842EED3C11B102906D34E
:10139000E01901604560A1688160276001E00746AF
:1013A000A06869698C420CBF6861C9F80800D8F868
:1013B0005C0020816681656004F10C062068E96AA2
:1013C0000019401E814238BFE862A7F10C0104F108
:1013D0000C0001F0DBFD6869A8616869E861686973
:1013E0002862E8686862E868A86200F064FA16B9E2
:1013F000042001F08CF998F84000C00709D50020BE
:10140000019000900023324641F21901022000F0C1
:1014100013F9304603B0BDE8F083000070656D6CD1
:101420000004FF1FAFF3008001F0B4FD01F0C4FD24
:1014300080B56E484CF22051C1814DF62811C18112
:101440004FF4E971018001F00BFE00F004F801F0A7
:1014500037FE012002BDF0B45FF0E020644865482B
:101460006549664A664B674C674D684D684E002774
:10147000DFF8A0C1CCF8007041F23C07C75957F023
:10148000005741F23C0C40F80C700F69FF0502D484
:101490004FF480770F6140F2FF310978C9B2FF291C
:1014A0000ED040F2FF31097891705B49097811F054
:1014B000E00140F2FE373F7817F01F073943D17043
:1014C000564941F24407C151022141F26807C15116
:1014D000534941F20407C15152490160002111737F
:1014E000252151708121504F39709A2111700021AE
:1014F000D170002111710E21517100211174917967
:101500008907FCD59179C906FCD4917911F00C01B9
:101510000829FAD14E215171917911F00C01082955
:10152000FAD191794906FCD51A211170917911F0FF
:101530000C010C29FAD1517951F0200151711F2170
:10154000697101212971B178090703D5B17851F08A
:101550000801B1700021B1705021317040217170CB
:1015600041F23C01415851F4000141F23C028150EA
:10157000012119602D49216041F23C01415851F48B
:10158000802141F23C02815041F23401415851F432
:10159000002141F2340281505FF0885024490860F4
:1015A000012024490870F0BC7047124941F25402EE
:1015B0008A58026041F258028A58426041F25C0245
:1015C0008A5882604FF483528958C1607047084935
:1015D0001038420901EB8201012210F01F0012FABB
:1015E00000F0C1F8800170470000000000200540B5
:1015F00000E100E00070044000D0034000400640DD
:101600000070034000F001400020034000F007405C
:1016100000D0074000D000400340064000006602B2
:10162000401305050000088000500640FF335F00AE
:101630000C0008E002D0074070B5774C246884B0F5
:10164000256CEE0734D5AE0603D5E669B66A760496
:101650002ED5012818BF022805D1AE0728D50D4088
:101660002D0A2D0224D0E5696D6D15B9E58A85F343
:101670001188E5696E6D761C6E65002503950093F3
:101680001346099D02950A46089D019501460020D2
:1016900001F030FFE069416D51B1491E416507D14C
:1016A000208B00281ABF606B8068608B80F31188E4
:1016B00004B070BD584800B5006885B0016C8A065A
:1016C00003D5C269926A520416D501F48171B1F54D
:1016D000817F11D1D0F8701271B1C36900200390DD
:1016E0004FF4817258690290012198680190D8687E
:1016F0000090002001F09EFE05B000BD464800B5F8
:10170000006885B0016C8A0603D5C269926A5204EA
:1017100016D501F48171B1F5817F11D1D0F8701225
:1017200071B1C3690020039040F209125869029018
:10173000012198680190D8680090002001F07AFE9D
:1017400005B000BD34480068016CCA0600D470477B
:1017500000B585B0C269436C9A421CBFD0F87032A4
:10176000002B11D04264880602D5906A40040BD544
:10177000002003900290052150690190906800902C
:101780000020D36801F056FE05B000BD000030B562
:1017900004462148006885B0D0F87012D1B1016CC0
:1017A0004A0717D5090703D4D0F8DC01844211D0C9
:1017B000204600F0D0F80546204600F0B0F80021A1
:1017C00003910291019103460095224603210020D6
:1017D00001F030FE05B030BD0F490968D1F8702224
:1017E00002B9704700B585B00A6C530710D51207CF
:1017F00003D4D1F8DC1188420AD000210391029170
:1018000001910091024600230421002001F012FE04
:1018100005B000BD000000000004FF1F31B5DFF877
:10182000E842206882B0C56990F84000C00709D539
:10183000029B019302A800902A4640F20221012057
:10184000FFF7FAFE2068C169496D11B9C18A81F3B9
:101850001188C069416D491C4165A8680B280BD0EF
:101860000B20A86041210298A863284601F05FFB85
:1018700068682968016048602068C1694A6D52B192
:10188000521E4A6507D1018B00291ABF406B806840
:10189000408B80F3118803B030BDDFF86C02006824
:1018A000C169496D11B9C18A81F31188C069416D5F
:1018B000491C41657047DFF850020068C1694A6DF4
:1018C00052B1521E4A6507D1018B00291ABF406BE5
:1018D0008068408B80F311887047DFF82C02006825
:1018E000806A7047DFF8201200B5096881B08A6B02
:1018F0000AB9182006E0CB6A984224BF096B8142DE
:1019000005D2142000F003FF002001B000BDC01A72
:1019100000EB400102EB8100406801B000BDDFF840
:10192000E81100B5096881B08A6B0AB9182006E091
:10193000CB6A984224BF096B814205D2142000F083
:10194000E6FE002001B000BDC01A00EB4001880097
:10195000105801B000BDDFF8B01100B5096881B0C2
:101960008A6B0AB9182006E0CB6A984224BF096B3B
:10197000814205D2142000F0CAFE002001B000BD53
:10198000C01A00EB400102EB8100806801B000BD8D
:101990002DE9F0415C4E376882B0044697F840006C
:1019A000C0078846154609D500200190009543469A
:1019B000224640F602010120FFF73EFEB86B30B927
:1019C000182000F0A4FE002002B0BDE8F081F96A02
:1019D0008C4224BF3A6BA24214D2142000F097FE2E
:1019E00097F84000C00709D500200190009000231F
:1019F000002240F602010220FFF71EFE002002B086
:101A0000BDE8F081611A01EB4102316800EB820010
:101A1000CA69526D12B9CA8A82F31188C9694A6DBE
:101A2000521C4A650468C0F8008085603068C1694E
:101A30004A6D52B1521E4A6507D1018B00291ABF67
:101A4000406B8068408B80F3118897F84000C00796
:101A500009D50020019000900023224640F60201A3
:101A60000220FFF7E9FD204602B0BDE8F0812DE934
:101A7000F04505468846A84581B038BF0C203ED3C6
:101A80002148224C07682248C7F82C01BC62A8EB09
:101A9000050000F1010A0AEB4A008000FFF738FC5C
:101AA000060008BF04202AD00321FFF79EFBBE6377
:101AB000FD62BAF1000FC7F830801FD01AF00300A2
:101AC00005D03460B5600C366D1C401EF9D15FEA5C
:101AD0009A0013D03460691C06F10C02B560916065
:101AE0001460491C42F80C4F916042F80C4F491C9D
:101AF0004D1C401E916002F10C06EBD1002001B09C
:101B0000BDE8F085000000000004FF1F1D18000064
:101B10003FC102002DE9F04FDFF82883D8F80070AC
:101B200089B0814697F840000026C0070D4614464C
:101B300008D5019600942B464A464FF48271012045
:101B4000FFF77AFD002D35D5D8F8004094F8400015
:101B5000C00708D5019600960023152240F2032104
:101B60000120FFF769FD04F118052888010019BF5D
:101B7000616BCA68E169CA6D3AB918B1616B152029
:101B8000C86002E0E1691520C86594F84000C0070C
:101B900007D501960096002340F203210220FFF7AB
:101BA0004BFD97F84000C00776D5019600961523A7
:101BB00000226CE0B9F1000F72D0B9F1FF0F2EDCFA
:101BC000D7F8F81189456BD0D7F8C463310026D017
:101BD000A5B9E069089041F20203A0690790606925
:101BE000069020690590E0680490A0680390606802
:101BF0000290206801900820009007E003200394E1
:101C00000295CDF80490009041F201030722494665
:101C10000120B047F869806B09B0BDE8F08FD8F8B3
:101C2000000000F1180595F82800C00709D500202C
:101C3000019000900023132240F203210120FFF7BE
:101C4000FBFC2888010019BFE969CA686968CA6D88
:101C50003AB918B1E9691320C86002E06968132035
:101C6000C86595F82800C00708D5002001900090AD
:101C7000002340F203210220FFF7DEFC97F840002A
:101C8000C00709D5002001900090132300224FF4D3
:101C900082710220FFF7D0FC002009B0BDE8F08F70
:101CA000D8F8000081460DB309F11C01B246D1F805
:101CB000ECB101E00BF1200BDBF8001091B1A9426F
:101CC0001CBF5BF8201F00290CD0A9421CBF5BF889
:101CD000201F002906D0A9421EBF5BF8201F002943
:101CE000A942E7D1DBF8001029B907E0A3464FF07D
:101CF000010ADBF81840BBF1000F2BD100F11805E9
:101D000095F82800C00708D50196009600231022F8
:101D100040F203210120FFF78FFC2888010019BF42
:101D2000E969CA686968CA6D3AB918B1E9691020E9
:101D3000C86002E069681020C86595F82800C007EF
:101D40006CD501960096002340F203210220FFF794
:101D500073FC63E04FF4B670484401F0EBFD01966C
:101D600000965346D9F81C00C1682246584600F038
:101D700039FE04464FF4B670484401F030FD002CA3
:101D80004CD0F869E668406D10B9F88A80F3118884
:101D9000F869416D491C4165D8F8005095F840003C
:101DA000C00709D50020019000900023224640F290
:101DB00001110120FFF740FCE0696A6A4168824234
:101DC00038BF68620222A26061600A6822600C600B
:101DD00044600020C4F8B000C4F8B400C4F8B800EF
:101DE00095F84000C00709D500200190009000231D
:101DF000002240F201110220FFF71EFCF869416D3C
:101E000051B1491E416507D1388B00281ABF786B44
:101E10008068788B80F311882AF0FEF897F84000EC
:101E2000C0070AD50020019000903246F869C36DC2
:101E30004FF482710220FFF7FFFB304609B0BDE886
:101E4000F08F00000004FF1F002363E62DE9F0433C
:101E5000DFF80C64D6F8008089B0054698F8400099
:101E6000C0070F46144609D50020019000943B4658
:101E70002A4640F205110120FFF7DEFB002F36D580
:101E8000346894F84000C00709D500200190009004
:101E90000023152240F203210120FFF7CDFB04F1BE
:101EA00018052888010019BF616BCA68E169CA6D0D
:101EB0003AB918B1616B1520C86002E0E1691520DC
:101EC000C86594F84000C00708D500200190009034
:101ED000002340F203210220FFF7AEFB98F84000F8
:101EE000C00774D5002001900090152369E02800F8
:101EF00071D0FF2D2FDCD8F8F8118D426BD0D8F8B7
:101F0000C4C3BCF1000F26D0A7B9E069089041F224
:101F10000203A06907906069069020690590E06857
:101F20000490A068039060680290206801900820E7
:101F3000009006E00320039402970195009041F27F
:101F40000103072229460120E047D8F81C00806BD6
:101F500009B0BDE8F083306800F1180595F8280055
:101F6000C00709D50020019000900023132240F201
:101F700003210120FFF760FB2888010019BFE969F0
:101F8000CA686968CA6D3AB918B1E9691320C860AE
:101F900002E069681320C86595F82800C00708D5D5
:101FA000002001900090002340F203210220FFF75F
:101FB00043FB98F84000C00709D50020019000902D
:101FC0001323002240F205110220FFF735FB002009
:101FD00009B0BDE8F08330680646FFB106F11C0188
:101FE0004FF00009D1F8EC5100E02035296891B19B
:101FF000B9421CBF55F8201F00290CD0B9421CBFA4
:1020000055F8201F002906D0B9421EBF55F8201FE1
:102010000029B942E9D1296821B905E025464FF0E8
:102020000109AC69002D41D100F1180595F828008F
:10203000C00709D50020019000900023102240F233
:1020400003210120FFF7F8FA2888010019BFE96988
:10205000CA686968CA6D3AB918B1E9691020C860E0
:1020600002E069681020C86595F82800C00708D507
:10207000002001900090002340F203210220FFF78E
:10208000DBFA002498F84000C0070BD5002001902F
:1020900000902246D8F81C00C36D40F205110220C2
:1020A000FFF7CAFA204609B0BDE8F0834FF4B670D6
:1020B000301801F03FFC0020019000904B46F06981
:1020C000C1682246284600F08DFC04464FF4B670E5
:1020D000301801F084FB002CD3D00320A060E4680A
:1020E000D0E70000F0B5DFF88462346883B00746BB
:1020F00094F84000C0070D4609D5002001900090DB
:102100002B463A464FF48D710120FFF795FA30685F
:102110000FB9C26966E0C16D8F4208BF00F150027D
:1021200060D0C169496D11B9C18A81F31188C16953
:102130004A6D521C4A65B0F84831D0F840216C3ADB
:102140009C464BB31CF0030300F00880D2F80CE06F
:10215000BE453AD0D26E6C3A5B1EF7D15FEA9C0363
:1021600000F01A80D2F80CC0BC451FBFD26E6C3A8A
:10217000D2F80CC0BC4528D0D26E6C3AD2F80CC054
:10218000BC451FBFD26E6C3AD2F80CC0BC451CD007
:10219000D26E6C3A5B1EE5D1FFF78DFB356895F882
:1021A0004000C00709D500200190009000231222B2
:1021B00040F203210120FFF73FFA288B010019BFED
:1021C000696BCA68E969CA6D23E04B6D53B15B1E48
:1021D0004B6507D1018B00291ABF406B8068408B8B
:1021E00080F31188002AD9D0D2F88060C2F88050DC
:1021F00094F84000C00709D500200190009000230A
:1022000032464FF48D710220FFF716FA304603B0C4
:10221000F0BD3AB918B1696B1220C86002E0E969F3
:102220001220C86595F84000C00708D5002001902D
:102230000090002340F203210220FFF7FDF994F8FB
:102240004000C00709D50020019000900023002223
:102250004FF48D710220FFF7EFF9002003B0F0BDBD
:102260000004FF1FF0B5414C216883B008B9CB6969
:102270005DE0CA6D904208BF01F1500357D0CA69B2
:10228000526D12B9CA8A82F31188CA69536D5B1CF8
:102290005365D1F84031B1F848616C3B0EB316F08C
:1022A000030506D0DF68874234D0DB6E6C3B6D1EC1
:1022B000F8D1B50815D0DE6886421FBFDB6E6C3BD7
:1022C000DE68864226D0DB6E6C3BDE6886421FBF2E
:1022D000DB6E6C3BDE6886421CD0DB6E6C3B6D1E99
:1022E000E9D1FFF7E8FA246894F84000C00709D55F
:1022F0000020019000900023122240F203210120CF
:10230000FFF79AF9208B010019BF616BCA68E16978
:10231000CA6D12E0506D50B1401E506507D1088B58
:1023200000281ABF486B8068488B80F31188002B07
:10233000D9D0D3F8800003B0F0BD3AB918B1616BC1
:102340001220C86002E0E1691220C86594F84000DC
:10235000C00708D5002001900090002340F203211F
:102360000220FFF769F9002003B0F0BD0004FF1F51
:10237000F0B50446DFF86C0005684FF4B67081B024
:10238000284401F0D7FAD5F84001B5F84871A0F11A
:102390006C06A7B19EB1B06E00693222214601F0F1
:1023A00029FC38B94FF4B670284401F018FAF068E7
:1023B00001B0F0BDF06E7F1EA0F16C06EAD14FF4C3
:1023C000B670284401F00BFA002001B0F0BDDFF830
:1023D000140000B5006881B0C06901F021FC806D77
:1023E00001B000BD0004FF1F70B5DFF8F46534686C
:1023F00082B0054694F84000C00709D5002001903E
:10240000009000232A4640F201110120FFF714F941
:1024100015BB356895F84000C00709D5002001902C
:1024200000900023122240F203210120FFF704F95B
:1024300005F118063088010019BF696BCA68E9699F
:10244000CA6D002A70D118B1696B1220C8606BE0A8
:10245000E9691220C86567E0E868D4F8F811000C53
:10246000884225D0306800F1180696F82800C00789
:1024700009D50020019000900023122240F2032190
:102480000120FFF7D9F83088010019BFF169CA6847
:102490007168CA6D4AB928B1F1691220C86096F80E
:1024A000280043E071681220C86596F828003DE0D6
:1024B000E069406D10B9E08A80F31188E069416DF0
:1024C000491C4165A86802284BD1FFF7F4F994F83C
:1024D0004000C00709D500200190009000232A4643
:1024E00040F201110120FFF7A7F8356895F8400088
:1024F000C00709D50020019000900023112240F26E
:1025000003210120FFF798F8288B010019BF696BA0
:10251000CA68E969CA6D3AB918B1696B1120C86017
:1025200002E0E9691120C86595F84000C00708D5A8
:10253000002001900090002340F203210220FFF7C9
:102540007BF894F84000C0074FD500200190009020
:102550000023002240F201110220FFF76DF802B0C3
:1025600070BD366896F84000C00709D5002001907C
:10257000009000232A4640F201110120FFF75CF889
:10258000E869726A4168824238BF70620222AA60BA
:1025900069600A682A600D6045600020C5F8B000D7
:1025A000C5F8B400C5F8B80096F84000C00709D5D2
:1025B0000020019000900023002240F2011102202F
:1025C000FFF73AF8E069416D51B1491E416507D105
:1025D000208B00281ABF606B8068608B80F31188A5
:1025E00002B0BDE8704029F017BD02B070BD000018
:1025F00030B5DFF89009046883B094F84000C00754
:1026000009D50020019000900023002240F21F1104
:102610000120FFF711F8E569FFF73FF9A86A40F4D8
:102620008050A862FFF747F994F84000C00709D529
:102630000020019000900023002240F21F11022090
:10264000FEF7FAFF03B030BDDFF838090068018BF0
:1026500011B1406BC0687047C069C06D7047DFF84A
:1026600024090068C069C068704770B5DFF81419A4
:102670000A6808B9D06970BDD16D884202D102F1F3
:10268000500070BDD169496D11B9D18A81F31188AB
:10269000D369596D491C5965D2F84011B2F84851B7
:1026A0006C3985B315F0030406D0CE68864208D095
:1026B000C96E6C39641EF8D1AC0824D0CD6885424F
:1026C0000ED1586D50B1401E586507D1108B0028AF
:1026D0001ABF506B8068508B80F31188084670BD1C
:1026E000C96E6C39CD6885421FBFC96E6C39CD6823
:1026F0008542E6D0C96E6C39CD688542E1D0C96E9D
:102700006C39641EDAD1FFF7D6F8002070BD70B5C1
:102710000446DFF87008056882B095F84000C007ED
:1027200009D50020019000900023224640F20321A9
:102730000120FEF781FF288B010019BF696BCE686D
:10274000E969CE6D002C18BF002E05D1002819BFF5
:10275000686BC460E869C46595F84000C00709D596
:102760000020019000900023324640F20321022015
:10277000FEF762FF304602B070BD2DE9F043DFF88E
:1027800004582C6883B094F84000C0070AD5002094
:10279000019000900023E069C2684FF48771012026
:1027A000FEF74AFFE069D0F88400010018BF8047B7
:1027B0002C6894F84000C00709D5002001900090D3
:1027C000002300224FF483710120FEF735FF2868B3
:1027D000C569002D1CBF04F15000854200F0EE8059
:1027E0004FF4B670204401F0A5F8FFF756F8A8683A
:1027F00009280ED1FFF75FF84FF4B670204400F0BF
:10280000EEFF94F84000C00700F1D28003B0BDE8AD
:10281000F083022807D1E069854220D068682968E2
:10282000016048601BE0C1050FD568682968016038
:102830004860B4F8D801401EA4F8D801A86820F474
:10284000807040F00300A86009E0800507D5686843
:10285000296801604860A86B0189491E0181A86848
:10286000400507D5286CE96B01604860A86B0189B9
:10287000491E01810920A8601027FFF71CF84FF4BA
:1028800021702618316808001CBF28468847361D6D
:102890007F1EF7D1AF89E66900212846FEF760FC6C
:1028A0005FEA00081AD041462846FEF759FCAE42BE
:1028B000814604D004F150014046FEF79BFCA84538
:1028C0001CBFD5F88C00804505D0686B80451CBFC7
:1028D0004046FEF7A1F85FEA0908E4D14FF0004056
:1028E000E860B4F84801012804D10121C4F84C1172
:1028F000002107E0D4F84C118F4205D2C4F84C7186
:10290000296F6C39C4F85011296FEA6E0A60516062
:10291000401EA4F848014FF4B670204400F05FFF59
:10292000B5422CD1FEF7B9FF68682968016048609C
:10293000686B40B104F15001FEF75CFC686BFEF778
:102940006BF800206863284601F06DF995F82800BF
:10295000800612D4D5F88C0038B104F15001FEF78E
:1029600049FCD5F88C00FEF757F804F150012846D1
:10297000FEF740FC2846FEF74FF829F04BFB686B4A
:1029800018B1FEF749F800206863284601F04BF9BA
:1029900095F82800800607D4D5F88C0008B1FEF71A
:1029A0003BF82846FEF738F894F84000C00713D5E6
:1029B0000020019000900023002208E094F84000DD
:1029C000C00709D5002001900090002312224FF487
:1029D00083710220FEF730FE03B0BDE8F0830000F3
:1029E0000004FF1F2DE9F64F0446DFF89805026842
:1029F000164685B0D6F83801E16888421F463BD2BA
:102A00004FF45270304484421EBF4FF44A70301865
:102A1000844231D002F1180494F82800C00709D587
:102A200000200190009000230E2240F2032101209B
:102A3000FEF702FE2088010019BFE169CA686168DB
:102A4000CA6D3AB918B1E1690E20C86002E0616848
:102A50000E20C86594F82800C00740F1D2810020FC
:102A600001900090002340F203210220FEF7E4FDD4
:102A7000002007B0BDE8F08F109D002D00F0AA8067
:102A8000DDF84480B8F50D7F31D802F1180494F8D0
:102A90002800C00709D500200190009000230222E1
:102AA00040F203210120FEF7C7FD2088010019BF75
:102AB000E169CA686168CA6D3AB918B1E169022072
:102AC000C86002E061680220C86594F82800C00769
:102AD00040F19781002001900090002340F20321F3
:102AE0000220FEF7A9FD002007B0BDE8F08F02929A
:102AF00010464FF4A47200EB0209DC21B9F8000083
:102B00004FF6FE7290424FF0000B59DAD9F89C0252
:102B1000019050B199F8A00200F1DC0121EA000B0C
:102B200001985844C01C810889000091284600F093
:102B30002DFA019818B105EB0B00C5F8D80005F186
:102B40006C03D9F80410D9F8B000D9F8082089B27C
:102B500041EA0040E860002A03BF02984FF4A072E7
:102B6000801802F16C000268EA660360286705F1CC
:102B70006C005060B9F80000401CA9F8000028461D
:102B80000246491C1FFA81FCD06EBCF1000FDDF833
:102B900008C04FF4A07E08BF0121F444A0F16C03EB
:102BA0006345184605D0DB689BB21FFA81FC63457C
:102BB000E6D089B2C9F80820C9F80410A94600E097
:102BC000D9460098A8EB0008380000F09780A8F1DB
:102BD000200893E0A068B0F5AC7F98BF4FF4AC70CC
:102BE0000F30114600094FEA001838001ABF08F1EB
:102BF00020000390CDF80C800292DC204FF4A472E8
:102C000001EB02094FF6FE72B9F8001091424FF045
:102C1000000B71DAD9F89C12019151B199F8A00218
:102C200000F1DC0121EA000B01985844C01C800827
:102C300080000090FDF769FD5FEA000A5CD0039810
:102C4000FDF74CFCCAF88C0018B95046FDF7E4FEBD
:102C500052E024215046FEF7C8FADAF88C0025210C
:102C6000FEF7C3FA019818B10AEB0B00CAF8D800B6
:102C70000AF16C03D9F80410D9F8B000D9F808208B
:102C800089B241EA0040CAF80C00002A03BF02984A
:102C90004FF4A072801802F16C000268CAF86C2030
:102CA0000360CAF870000AF16C005060B9F80000C7
:102CB000401CA9F8000050460246491C1FFA81FC3E
:102CC000D06EBCF1000FDDF808C04FF4A07E08BF45
:102CD0000121F444A0F16C036345184605D0DB687C
:102CE0009BB21FFA81FC6345E6D089B2C9F808207F
:102CF000C9F80410D14601E04FF00009B9F1000F06
:102D000031D1DFF88002046894F84000C00709D58B
:102D100000200190009000230A2240F203210120AC
:102D2000FEF78AFC208B010019BF616BCA68E1695C
:102D3000CA6D3AB918B1616B0A20C86002E0E16956
:102D40000A20C86594F84000C0075AD500200190B9
:102D50000090002340F203210220FEF76DFC0020CA
:102D600007B0BDE8F08F0320D9F88C10C9F808002F
:102D700021B9009809EB0001C9F88C1057B1084639
:102D800094EC080B044680EC080B206840F00040EF
:102D9000203120605FEA980308467B4A0CD05B1E16
:102DA000026009D05B1E426006D05B1E826003D0C9
:102DB000C26010305B1EF2D1E268306A12015242EA
:102DC0001044C9F81C00C9F820008289A9F8242001
:102DD0006269C9F828201DB142F02002C9F82820F4
:102DE0002346069A0192424680890090484600F0A8
:102DF0001BFF50B9D9F88C00FDF70EFE4846FDF7D1
:102E00000BFE002007B0BDE8F08FC9F868402068CD
:102E1000C9F86400E06978B1D9E92923D6F8E4114A
:102E2000414C48434000A0FB0441880A002110188F
:102E30005941C9E9290106E04FF45F7131441CC9C9
:102E400009F1A4001CC0D6F87803022805D1D9F8EE
:102E5000280040F00400C9F82800D6F8EC02C9F8B0
:102E60007400D6F8F002C9F87800D6F8F402C9F870
:102E70007C000598C9F8600055B9F169D9F88C0053
:102E80004A46FEF7BBF9F1694A464846FEF7B6F9ED
:102E9000484607B0BDE8F08F89083B4A0CD0491E70
:102EA000026009D0491E426006D0491E826003D0EC
:102EB000C2601030491EF2D1704730B50446314827
:102EC000056883B095F84000C00709D5002001903F
:102ED00000900023224640F201110120FEF7ACFBD6
:102EE000E0696A6A4168824238BF68620222A26071
:102EF00061600A6822600C6044600020C4F8B00081
:102F0000C4F8B400C4F8B80095F84000C00709D56B
:102F10000020019000900023002240F201110220C5
:102F2000FEF78AFB03B030BD986E12837047F0B590
:102F300004461448066883B096F84000C0070D4662
:102F400009D500200190009000232A4640F2032179
:102F50000120FEF771FBE76D002D14BF002FE56522
:102F600096F84000C00709D500200190009000238A
:102F70003A4640F203210220FEF75EFB384603B0DA
:102F8000F0BD00000004FF1F6B617473002200F0AD
:102F90007BBEFEE74EF68851CEF20001086840F491
:102FA00070000860BFF34F8FBFF36F8F4FF000705A
:102FB000E1EE100A70470000FDF780FA002801D00A
:102FC00000F092FE0020AFF3008000F0A1FEFDF7BC
:102FD00080FA00000FB401989DF808109DF80920B0
:102FE0009DF80A30DB0353EA02429DF80B3052EAA7
:102FF00003229DF80C3052EA83129DF80E3052EAFB
:1030000043129DF80F3052EA03129DF80D3052EA38
:1030100083029DF810301A4340F821209DF81200D9
:10302000002806D101209DF808108840009988608A
:1030300005E001209DF8081088400099486000983C
:10304000406901219DF80820914088439DF81110A6
:103050009DF80820914008430099486104B07047EA
:1030600010B582B01248006850F4785010490860DA
:1030700000240DE00F48142101FB04F1014484B049
:103080006846142200F05EFE0FBCFFF7A3FF641C2D
:10309000642CEFD3002016BD002804D14FF400604B
:1030A0000549086003E04FF4006004490860704778
:1030B00038800440A4D10200C8F00F40C4F00F4093
:1030C00010B4DFF86003DFF8601341F23C028A5865
:1030D00052F0020241F23C03CA504FF482528A5825
:1030E00052F002024FF48253CA50D0490160016885
:1030F0008903FCD4CD49016001688903FCD4002117
:1031000041614021C17740218177402181764FF490
:1031100080610160002142E000224B0103444FF432
:1031200080541A5100224B01034441F204041A5303
:1031300000224B01034441F206041A5300224B01C2
:10314000034441F208041A5100224B01034441F2A6
:103150000C041A5100224B01034441F210041A518D
:1031600000224B01034441F214041A5300224B0184
:10317000034441F216041A5300224B01034441F266
:1031800018041A5100224B01034441F21C041A5343
:1031900000224B01034441F21E041A53491C20290A
:1031A000BAD310BC7047C0B2012804D0022804D0A2
:1031B000042804D005E0002004E0012002E0022001
:1031C00000E000207047F8B504000D00954E207E09
:1031D000A8702078400130444FF4805100224250C2
:1031E00020784001304441F20401227E425220788E
:1031F0004001304441F20C0100224250207840014D
:10320000304441F21001E2684250207840013044DD
:1032100041F214010022425220784001304441F230
:1032200018010022425020784001304441F2080148
:10323000227E425020784001304441F21E0100229B
:10324000425220784001304441F21601002242529D
:10325000207EFFF7A8FF0700207EFFF7A4FF21785C
:103260004901314441F20602FFB23B0253FA80F0B9
:10327000885220784001304441F21C010822425219
:10328000207828702078616980392269C0B2115491
:10329000F1BDF8B504000D00624E207EA8702078C4
:1032A000400130444FF48051E268425020784001A0
:1032B000304441F20401002242522078400130445F
:1032C00041F20C010022425020784001304441F28A
:1032D00010010022425020784001304441F2140194
:1032E000227E425220784001304441F218010022EF
:1032F000425020784001304441F20801227E425081
:1033000020784001304441F21E01002242522078D0
:103310004001304441F2160100224252207EFFF764
:1033200042FF0700207EFFF73EFF2178490131442C
:1033300041F20602FFB23B0253FA80F08852207835
:103340004001304441F21C010A2242522078687048
:103350002078616980392269C0B21154F1BD30B45E
:10336000304B01244578AC401C77447864011C4400
:103370004FF480552C442E4D25610025A582E58B08
:103380006FF30A051543E583E58BE5820124057893
:10339000AC401C77047864011C444FF480552C44E5
:1033A00021608178A180E18B6FF30A011143E183F1
:1033B000E18BE1824178D9760078D87630BC7047CD
:1033C00070B4184C01254678B540257745786D01D5
:1033D00025444FF4805635442A618278AA82EA8BCC
:1033E0006FF30A021A43EA83EA8BEA820122057824
:1033F000AA4022770278520122444FF480552A4491
:10340000116081789180D18B6FF30A011943D183C8
:10341000D18BD1824178E1760078E07670BC70473C
:103420000000000000800040007004402004020002
:10343000F99100202DE9F0430C4648490F6885B00A
:10344000D7F8701201EB800090464568086844493F
:103450008842994618BF192049D125B940F2025037
:1034600005B0BDE8F0832868C10458BF40F205509C
:103470003DD5A969CE6AA968EA6891420ED3C00712
:1034800007D5E869864204BFF06AE861F06A2862FD
:1034900006E040F2035005B0BDE8F083481CA86088
:1034A00001F0F8F8F06002AA4FF4E27039184FF416
:1034B000DC70384401F062FB694602A801F080FB31
:1034C000009870600198B0606868411C6960306065
:1034D0003461C6F81480C6F818900C98F0610D9805
:1034E00030620E9870620F98B062AE61002005B035
:1034F000BDE8F08370B5194C2468102884B028BF4B
:103500004FF4A06027D2D4F8705215B9182004B037
:1035100070BDE5696D6D15B9E58A85F31188E569BA
:103520006E6D761C6E650B9D03950A9D0295099D37
:103530000195089D0095FFF77DFFE1694A6D52B145
:10354000521E4A6507D1218B00291ABF616B896819
:10355000618B81F3118804B070BD00000004FF1F6F
:10356000676C776C70B50446DFF86C06056882B04E
:1035700095F84000C0070E4609D500200190009044
:1035800000233246DFF854160120FEF755F804F107
:103590000800A060E060A661002020826082FEF743
:1035A0007CF9D5F8600100E000684FF4B07129445F
:1035B00088422ED0A04217D000684FF4B071294441
:1035C000884226D0A0420FD000684FF4B071294441
:1035D00088421ED0A04207D000684FF4B071294441
:1035E000884216D0A042DFD1FEF765F995F8400079
:1035F000C0070AD500200190009000234FF482629A
:10360000DFF8D8150220FEF717F84FF4826002B0F9
:1036100070BDD5F8640100682060D5F864110C60B5
:10362000D5F8641161604460B5F86801401CA5F8E4
:103630006801DFF8AC056061FEF73DF995F84000E0
:10364000C00709D500200190009000230022DFF878
:103650008C150220FDF7F0FF002002B070BDF0B520
:103660000446DFF87405056883B095F84000C0078C
:1036700009D500200190009000232246DFF8641550
:103680000120FDF7D9FFFEF708F96069DFF8501552
:10369000884212D0FEF70FF995F84000C00709D50F
:1036A00000200190009000231F22DFF8381502202F
:1036B000FDF7C2FF1F2003B0F0BD0020606140F2A3
:1036C000011648E0A068416802680A605160A0F1F4
:1036D0003C07591E2182B868C1050DD579683A6842
:1036E0000A60516020F48070B5F8D811491EA5F821
:1036F000D81140F00300B86095F84000C00708D525
:1037000000200190009000233A4631460120FDF749
:1037100093FFF869696A814238BF68620220B86025
:10372000F869416879600A683A600F604760002074
:10373000C7F8B000C7F8B400C7F8B80095F8400063
:10374000C00708D5002001900090002300223146D8
:103750000220FDF771FF238A1800B3D1D5F860016C
:1037600000E000684FF4B0712944884222D0A042A2
:1037700017D000684FF4B071294488421AD0A04293
:103780000FD000684FF4B0712944884212D0A04293
:1037900007D000684FF4B071294488420AD0A04293
:1037A000DFD16068216801604860B5F86801401E9B
:1037B000A5F86801FEF77FF828F02EFC95F8400088
:1037C000C00709D500200190009000230022DFF8F7
:1037D00014140220FDF730FF002003B0F0BD30B517
:1037E0000546DFF8F403046883B094F84000C0078E
:1037F00009D500200190009000232A46DFF8E81345
:103800000120FDF719FF6869DFF8D413884210D052
:1038100094F84000C00709D50020019000900023D3
:103820001F22DFF8C4130220FDF706FF1F2003B09C
:1038300030BDE069406D10B9E08A80F31188E0691D
:10384000416D491C4165A869002852D4298A0A00A3
:103850004FD0A8684268036813605A60491E2982E5
:10386000A0F13C05A868C1050DD569682A680A6001
:10387000516020F48070B4F8D811491EA4F8D81112
:1038800040F00300A8600020A86394F84000C0073F
:1038900009D500200190009000232A4640F2011132
:1038A0000120FDF7C9FEE869616A814238BF6062A4
:1038B0000220A860E869416869600A682A600D60B2
:1038C00045600020C5F8B000C5F8B400C5F8B800E0
:1038D00094F84000C00709D5002001900090002313
:1038E000002240F201110220FDF7A6FE28F094FB11
:1038F00001E0401CA861E069416D51B1491E41657C
:1039000007D1208B00281ABF606B8068608B80F322
:10391000118894F84000C00709D50020019000905C
:1039200000230022DFF8C0120220FDF785FE0020F0
:1039300003B030BD70B50546DFF89C02046882B064
:1039400094F84000C00709D50020019000900023A2
:103950002A46DFF898120120FDF76EFE208B80B119
:1039600094F84000C00709D5002001900090002382
:103970000D22DFF878120220FDF75EFE0D2002B066
:1039800070BD6869DFF85862B04206D094F8400014
:10399000C00735D41F2002B070BDE069406D10B97A
:1039A000E08A80F31188E069416D491C4165A9698D
:1039B00001291ADA40F22B41816005F10801816387
:1039C000416802680A60516000F13C02E9680968D8
:1039D000C163EB681A60EA6802643C304860288A78
:1039E000401C288228F026FB01E0481EA861686977
:1039F000B04212D0FDF75FFF94F84000C00709D530
:103A000000200190009000231F22DFF8E011022027
:103A1000FDF712FE1F2002B070BDE069416D51B18B
:103A2000491E416507D1208B00281ABF606B806852
:103A3000608B80F3118894F84000C00709D50020FE
:103A40000190009000230022DFF8A0110220FDF772
:103A5000F3FD002002B070BD2DE9F04104465E4840
:103A6000056882B095F84000C0070F4608D50020D1
:103A7000019000903B4622465D490120FDF7DCFDA8
:103A8000288B80B195F84000C00708D50020019030
:103A9000009000230D2256490220FDF7CDFD0D2098
:103AA00002B0BDE8F0816069DFF83481404507D09D
:103AB00095F84000C00760D41F2002B0BDE8F08137
:103AC000E869406D10B9E88A80F31188E869416DB2
:103AD000491C4165A069012843DAEE6904F1080236
:103AE00040F22B4EC7B9C6F808E0B263706831687F
:103AF0000160486006F13C01E0680068F063E2683C
:103B00001160E168316406F13C014160208A401C8B
:103B1000208228F08FFA26E0D5E96E010B460021BD
:103B2000C0195941C6E91101C6F808E0B2637068CE
:103B300031680160486006F13C01E0680068F063AC
:103B4000E2681160E168316406F13C014160208A5D
:103B5000401C2082304600F05DFAB06B18B1372669
:103B600002E0401EA06100266069404512D0FDF7CA
:103B7000A2FE95F84000C00708D5002001900090F3
:103B800000231F221A490220FDF756FD1F2002B014
:103B9000BDE8F081E869416D61B1491E4165E869A0
:103BA000406D38B9288B00281ABF686B8068688B15
:103BB00080F3118895F84000C00708D500200190D7
:103BC0000090002332460A490220FDF735FD3046B9
:103BD00002B0BDE8F08100000004FF1F0F000200EA
:103BE0006D73776C120002001100020010000200D9
:103BF0001600020010B401E0491C521E6AB10B7895
:103C000004789C4205D010BC2CBF01204FF0FF303F
:103C1000704710F8013B002BEED110BC002070471C
:103C2000006964387047704730B50A440F31521E3E
:103C300009091209090181B012018161A2F164052B
:103C4000026145611C4664212846FFF79FF90B4835
:103C500028640598E8626168A86541F0010169641B
:103C600000204FF080712860A964049868606FF0AC
:103C70000200A86201B0012030BD00BF7B27000018
:103C800062F30F2262F31F42401810F0030308D0C2
:103C9000C91A1FD3DB0748BF00F8012D28BF20F841
:103CA000022D130030B414461546103928BF20E900
:103CB0003C00FAD8490728BF20E90C0048BF40F86B
:103CC000042D890028BF20F8022D48BF00F8012DDF
:103CD00030BC7047C91818BF00F8012DCB0728BFAA
:103CE00000F8012D7047000010B5074979441831DC
:103CF000064C7C44163404E00A68081D11448847C9
:103D00000146A142F8D110BD64C30200A0C3020065
:103D100000B581B0024800F093FF002001B000BD63
:103D20002800030062B38B0708D0521E11F8013B34
:103D300000F8013B00F024808B07F6D1830740F0A8
:103D4000208000BF103A07D330B4B1E83810103AE1
:103D5000A0E83810F9D230BC530724BFB1E80810EE
:103D6000A0E8081044BF51F8043B40F8043BD207D8
:103D700024BF31F8022B20F8022B44BF0B780370CC
:103D80007047083A07D3B1E80810083A40F8043BF6
:103D900040F804CBF7D25307E4E700002DE9F041E7
:103DA000DFF87468346882B0074694F84000C007B2
:103DB00009D500200190009000233A4642F2030109
:103DC0000120FDF739FC208B68B10D20FEF79FFC28
:103DD00094F84000C00740F17F80002001900090DF
:103DE00000230D2273E017B901F0F2F966E0E569EE
:103DF00005F14401781E01F067FBD5E91101801C33
:103E000041F10001C5E91101E069406D10B9E08A96
:103E100080F31188E069416D491C41654FF4DC7005
:103E2000211805F1440205F1440000F0A7FE3668B0
:103E3000B6F8D8814FF4E8703718B8F1000F1CD0ED
:103E4000D6F8D0C108F1010E02E06746DCF800C0E8
:103E5000BEF1010E11D0D5E91123DCE911018B422D
:103E60000BD301D8824208D3DCE91123D5E9110133
:103E70008B42EAD301D88242E7D36868296801609F
:103E80004860386828603D606F60456008F1010057
:103E9000A6F8D801A86840F48070A86028F0CAF895
:103EA000E069416D51B1491E416507D1208B002861
:103EB0001ABF606B8068608B80F3118894F84000B3
:103EC000C00709D50020019000900023002242F293
:103ED00003010220FDF7B0FB02B0BDE8F0812DE93F
:103EE000F041DFF834773C6882B0064694F8400031
:103EF000C00709D50020019000900023324642F20D
:103F000004010120FDF798FB66B90C20FEF7FFFBCA
:103F100094F84000C0077AD500200190009000235B
:103F20000C226FE0208B60B10D20FEF7F0FB94F8BF
:103F30004000C0076BD500200190009000230D22A7
:103F400060E0E569686D10B9E08A80F31188696DF9
:103F5000491C69654FF4DC70211805F144023046B4
:103F600000F00CFE3E68B6F8D8814FF4E8703718C0
:103F7000B8F1000F1CD0D6F8D0C108F1010E02E054
:103F80006746DCF800C0BEF1010E11D0D5E911235F
:103F9000DCE911018B420BD301D8824208D3DCE962
:103FA0001123D5E911018B42EAD301D88242E7D32C
:103FB0006868296801604860386828603D606F6003
:103FC000456008F10100A6F8D801A86840F48070A7
:103FD000A86028F02FF8E069416D51B1491E416594
:103FE00007D1208B00281ABF606B8068608B80F33C
:103FF000118894F84000C00709D500200190009076
:104000000023002242F204010220FDF715FB02B05A
:10401000BDE8F081F0B5DFF80016096881B04FF413
:10402000E872B1F8D8618F1832001CD0D1F8D0C135
:1040300006F1010E02E06746DCF800C0BEF1010E99
:1040400011D0D0E91145DCE911239D420BD301D8F1
:10405000944208D3DCE91145D0E911239D42EAD30B
:1040600001D89442E7D34268036813605A603A6803
:104070000260386047605060721CA1F8D8218168E6
:1040800041F48071816001B0BDE8F04027F0D2BFFB
:104090002DE9F041DFF880753C6882B0064694F85F
:1040A0004000C00709D5002001900090002332464F
:1040B00042F205010120FDF7BFFA208B60B10D200F
:1040C000FEF725FB94F84000C00770D50020019052
:1040D000009000230D2265E016B901F079F858E050
:1040E000E569686D10B9E08A80F31188696D491C33
:1040F0006965D4E96E23002190195941C5E9110180
:104100003E68B6F8D8814FF4E8703718B8F1000F60
:104110001CD0D6F8D0C108F1010E02E06746DCF8E9
:1041200000C0BEF1010E11D0D5E91123DCE9110167
:104130008B420BD301D8824208D3DCE91123D5E9A5
:1041400011018B42EAD301D88242E7D3686829681B
:1041500001604860386828603D606F60456008F124
:104160000100A6F8D801A86840F48070A86027F084
:1041700061FFE069416D61B1491E4165E069406DD3
:1041800038B9208B00281ABF606B8068608B80F381
:10419000118894F84000C00709D5002001900090D4
:1041A0000023002242F205010220FDF745FA02B089
:1041B000BDE8F08110B584B0144600281EBF002968
:1041C0006A4601F0B3F92146684601F0CDF904B022
:1041D00010BD10B584B0144600281EBF00296A46E1
:1041E00001F0A4F92146684601F00CFA04B010BDB4
:1041F0002DE9F047002818BF002900F0A881B0F988
:104200000C30DFF8044913FB04F403EB244462127E
:1042100002EBD27212B24FF47A7404FB12331BB267
:10422000002B03D5521E03F57A7312B28381002A44
:10423000B0F90A301C4640F1A580002C04D5C4F525
:104240008054A242C0F28381DFF8C048D3181AB26A
:1042500012FB04F402EB24446211438102EBD2729C
:1042600012B21BB2C2EB0214A3EB84031BB2002BED
:1042700002D5521E3C3312B24381002AB0F90830F5
:104280001C4640F18B80002C04D5C4F58054A2421A
:10429000C0F25D81DFF87448D3181AB212FB04F43F
:1042A00002EB24446211038102EBD27212B21BB200
:1042B000C2EB0214A3EB84031BB2002B02D5521EE7
:1042C0003C3312B20381002AB0F906301C4671D586
:1042D000002C04D5C4F58054A242C0F2388142F6C5
:1042E000AB24D3181AB212FB04F4A214C38002EB5D
:1042F000D27212B21BB202EB4204A3EBC4031BB294
:10430000002B02D5521E183312B2C380002AB0F916
:1043100004301C4658D5002C04D5C4F58054A24264
:10432000C0F21581D218828042F6AB244288531E17
:104330001AB212FB04F46214438002EBD27212B27E
:104340001BB202EB4204A3EB84034380B0F90230BA
:10435000002B03D50C33521E438012B2B0F900304B
:10436000002A1C463AD5002C04D5C4F58054A2423C
:10437000C0F2ED80D2180280DFF894374288521CD8
:10438000428039E0012CFFF65FAF47F6FF752C1B2A
:104390009442BFF659AF0020BDE8F087012CFFF62C
:1043A00079AF47F6FF752C1B9442BFF673AF002020
:1043B000BDE8F087012C92DB47F6FF752C1B944279
:1043C0008DDA0020BDE8F087012CABDB47F6FF75E6
:1043D0002C1B9442A6DA0020BDE8F087012CC9DB33
:1043E00047F6FF752C1B9442C4DA0020BDE8F08725
:1043F000012242806A1C0280B0F900501FFA85FC3D
:104400004AF2D73404FB0CF21444A20D642404FBDA
:1044100012C616BB4AF2D73404FB0CF21444220E27
:104420004FF4C87404FB12C2E2B10022B0F902409A
:10443000B0F904701A4432F81420BA4214DABA1AE5
:104440008280621C4280B0F902200D2AD0D0002A5E
:10445000D2D10C2242806A1ECDE74FEA9C02BCEB0F
:104460008202E2D11A22E1E7002F04BF8280621E9D
:10447000E8D0AE4640F2B272964568DBEA03120C11
:1044800005EB9232120441F27B4A4FEAA24915FB36
:104490000AFA4FEAEA4202EBD27212B2A9EB020226
:1044A000DFF870968EFB09A94FEAE91E0EEBDE7E5F
:1044B00040F26D18724415FB0822DFF85C56002E9E
:1044C0002A4447D14AF2D73606FB0CF52E44350E66
:1044D0004FF4C87606FB15C5002D40D000260025F8
:1044E0004FF01A0C1CFB06F6641E334400F01480D7
:1044F00033F81460AD19641E0ED033F81460AD1992
:10450000641E09D033F81460AD19641E04D033F86A
:104510001460AD19641EEBD1B0F90860B0F9064023
:104520007B1EC6EB0617BE00DFF8F0755B194FF473
:10453000616514FB0564B0F90A506419DFF8E055B1
:104540002D1BA5FB07769A18350C95420AD2002040
:10455000BDE8F0874FEA9C05BCEB8505BED101267E
:10456000521EBCE7DFF8BC5505FB02440C60B0F9F5
:104570000C404C60111DDFF8B04503820022E1FBC6
:1045800004429208C2EBC202891AC1810120BDE82F
:10459000F08770B50446DFF89405056884B0E869D3
:1045A000406D10B9E88A80F31188E869416D491CB3
:1045B000416568464FF4DC7129444CC94CC0D5F8BC
:1045C000F011080003D0D5F8F401884702904FF4A9
:1045D000E27029186A46684600F0D0FAE869416D31
:1045E00051B1491E416507D1288B00281ABF686B5D
:1045F0008068688B80F31188684601F051F8214685
:10460000684600F0DDFA04B070BDDFF820050068F0
:10461000D0F8E401704700000004FF1F30B504002B
:1046200081B035D0DFF804050568E869406D10B940
:10463000E88A80F31188E869416D491C41654FF4AF
:10464000DC7028440EC80EC4D5F8F0110C3C0800EC
:1046500003D0D5F8F4018847A0604FF4E270291820
:104660002246204600F08AFAE869416D51B1491EA0
:10467000416507D1288B00281ABF686B8068688B5A
:1046800080F31188204601B0BDE8304001F008B841
:1046900001B030BD10B5DFF894040468D4F8F0110F
:1046A000080001D1002010BDD4F8F4018847D4F8E7
:1046B000E421DFF87C14B1FBF2F14843D4F8EC11AB
:1046C000B0FBF1F080B210BD2DE9F041DFF85C04E1
:1046D000046882B0D4E96E01401C61F1FF31C4E985
:1046E0006E01E069406D10B9E08A80F31188E069DD
:1046F000416D491C4165D4F8F011080004D0D4F88C
:10470000F4018847C4F8C0014FF4DC70204400F085
:10471000C7FFB4F8D87138005ED0D4F8D05140F259
:1047200001182E68D5E91101D4E96E237F1E994244
:104730000BD301D8904208D3D4E96E23D5E91101F7
:104740008B4249D301D8824246D3B4F8D801401EE7
:10475000A4F8D8016868296801604860A868400525
:1047600007D5286CE96B01604860A86B0189491E78
:10477000018194F84000C00708D500200190009006
:1047800000232A4641460120FCF756FFE869616A8A
:10479000814238BF60620220A860E86940686860B2
:1047A000016829600560E86945600020C5F8B0002F
:1047B000C5F8B400C5F8B80094F84000C00708D5A3
:1047C0000020019000900023002241460220FCF7C7
:1047D00033FF002F3546A4D1E569A86A410750D5BB
:1047E000D5E92C23521C63F1FF33C5E92C23C00407
:1047F00047D4D5E92901D5E92C2399420BD301D817
:10480000904208D3D5E92C01D5E92923994238D320
:1048100001D8904235D3686829680160486094F8EF
:104820004000C00709D500200190009000232A46CF
:1048300040F201110120FCF7FFFEE869616A814244
:1048400038BF60620220A860E8694068686001685B
:1048500029600560E86945600020C5F8B000C5F82A
:10486000B400C5F8B80094F84000C00709D500208E
:10487000019000900023002240F201110220FCF779
:10488000DBFEE069416D61B1491E4165E069406D43
:1048900038B9208B00281ABF606B8068608B80F36A
:1048A0001188D4F88803010018BF8047D4F8C003EA
:1048B000010003D002B0BDE8F041004702B0BDE8FE
:1048C000F08130B50546DFF86402046885B094F8DD
:1048D0004000C0070AD5002001902A466868009071
:1048E00042F201012B680120FCF7A6FE6868B0F5D2
:1048F0007A7F0CD3DFF83C22A0FB02212A68490A08
:104900008A182A604FF47A7202FB1100686002A9CB
:10491000284600F0DDFEE069406D10B9E08A80F3C2
:104920001188E069416D491C41654FF4E27022181D
:104930004FF4DC70211802A800F0F8FDE069416D29
:1049400051B1491E416507D1208B00281ABF606B09
:104950008068608B80F3118894F84000C00709D507
:104960000020019000900023002242F20101022069
:10497000FCF762FE05B030BDDFF8B0110968C1F880
:10498000E4017047DFF8A4211268C2F8F001C2F810
:10499000F4117047DFF894110968C1F8EC01704711
:1049A00030B4002818BF00290BD04268DFF88441DA
:1049B000DFF86C51A2FB04435B0A0468ED1AA542C0
:1049C00002D230BC002070471C194FF47A75046085
:1049D00005FB132242608A81DFF84031DFF858512D
:1049E000A4FB0330000CDFF83C3103FB1043A3FBB6
:1049F0000554E40ACC804FF46165B1F9064014FB1C
:104A000005F41B1BDFF83451A3FB055464090C812A
:104A1000021DB1F90840C4EB0415A3EB85034B81DB
:104A20000023DFF80441E2FB04439B08C3EBC3030C
:104A3000D21ACA8100F26D10DFF80431DFF80441A8
:104A4000A0FB0332920A920040F2B5535343A0EB0D
:104A500093000023E0FB04431B0A042B08BF03233D
:104A60009A1840F26D1402F2B17204FB13000A802E
:104A700008824AF2D7340A8804FB02F31C44A30DCF
:104A8000642404FB1323C3BB4AF2D73404FB02F3B0
:104A90001C44230E4FF4C87404FB13228AB3002273
:104AA00001234B800FF2A0039C186488A0421FD3FF
:104AB000B1F902409D1835F81450641C401B4C801D
:104AC0009D1824B235F81450A84211D3641C401B21
:104AD0004C809D1824B235F81450A84208D3641CA9
:104AE000401B4C809D1824B235F81440A042DFD200
:104AF000401C8880012030BC70479308B2EB8302D1
:104B0000CDD11A22CCE700001383FFFF8988FFFF75
:104B1000484B00001F85EB515905F5FF07452EC294
:104B2000FF5686F480510100922449920004FF1F31
:104B300040420F00986E1283C5B3A291898888887D
:104B400098836DB3B0F98CB300001F001C001F00E8
:104B50001E001F001E001F001F001E001F001E0061
:104B60001F0000001F001D001F001E001F001E0070
:104B70001F001F001E001F001E001F00F0B4D0E920
:104B80000045D1E90067A4197D410C4BC2E90045FD
:104B90001B6880688968D3F8EC310E18591A88426E
:104BA00008D3601C65F1FF31C2E90001F01A906082
:104BB000F0BC70479660F0BC704700BF0004FF1F58
:104BC0002DE9F04E07461D480668D6F8E441D7E9BE
:104BD000009A0D46484651462246002300F0AEFD9D
:104BE0000123994208D34FF0FF30286040F2E730AC
:104BF00068600020BDE8F08E4FF47A7B5846A0FB39
:104C0000092300FB0A33B868D6F8EC110BFB00F05F
:104C1000B0FBF1F00021101859412246002300F0AA
:104C20008DFD04465A46002300F088FD28600BFBEA
:104C3000104068600120BDE8F08E00BF0004FF1F37
:104C4000F0B50646DFF8344583B004F1180000F0F3
:104C5000EDFD40B12568D5F8700300F0FDFDD5F8F5
:104C6000740303B0F0BD70680F3005092D01256095
:104C70004FF47D710FF2505028600FF250502860B1
:104C80002846FEF783F94FF4FC70284496EC0C0B91
:104C900080EC0C0BD5F80002C5F8FC5100090001AE
:104CA000C5F8000200F0AEF9FCF7D7F9060013D002
:104CB000FCF7F3FD256895F84000C00709D50020F2
:104CC000019000900023324640F201210120FCF7C0
:104CD000B3FCC5F874633AE0D5F80462D5F82072E5
:104CE00097B9B6F5AC7F3CBF4FF4AC70C5F8040281
:104CF000D5F8040200F110063046FBF7E1FF07008B
:104D000011D00221FCF771FA31463846FEF7C4F89B
:104D1000B819401E00090001E8634FF4AC70FBF7BE
:104D2000CFFF06001DD1FCF7B8FD256895F84000BF
:104D3000C00709D50020019000900023042240F212
:104D400001210120FCF778FC0420C5F87403D5F894
:104D50006803010018BF8047012104F1180000F02A
:104D60006FFD0121FCF741FA06F25710000900011E
:104D70002866A0F1640106F10F00000900016966D0
:104D8000A866616000F098FD060013D0FCF785FD71
:104D9000256895F84000C00709D5002001900090D3
:104DA0000023324640F201210120FCF745FCC5F802
:104DB0007463CCE74FF40A7001212844FEF7D2FB5C
:104DC0004FF4B67001212844FEF7CCFB00F000FE42
:104DD000060013D0FCF761FD256895F84000C00778
:104DE00009D50020019000900023324640F20121B5
:104DF0000120FCF721FCC5F87463A8E700200190AE
:104E000000900123E869C1684FF4527000222844E1
:104E1000FDF7E8FD002886D0FEF74FF8D5E9DF0161
:104E20000A3041F10001C5E9DF01DFF8540346080B
:104E3000DFF85003400876004000871B3846FBF738
:104E40004DFBDFF8441349084900891B420801EB78
:104E5000420141F00101A1603A46DFF830134908F0
:104E60004900891B4118E160DFF824134908490013
:104E7000891B411821613146FEF754FF0020019043
:104E800000900123E869C1684FF44A700022284469
:104E9000FDF7A8FD08B9FFF746BFFEF70EF827F0AB
:104EA000B7F8002003B0F0BD82B00546FCF7F5FC72
:104EB000DFF8C842266896F84000C00709D50020F0
:104EC0000190009000232A4640F201210120FCF7C6
:104ED000B3FBD6F86803C6F87453010018BF8047C7
:104EE000012104F1180000F0ABFC00BF70B5DFF841
:104EF0008C020468D4F8F03318001CBFD4F8EC53CB
:104F0000002D37D0686E002600280AD4A869696988
:104F100081420068DFF87C1238BF0126884218BF42
:104F20000126E069E968C06832469847002E1CBF38
:104F3000E06985421ED0406D10B9E08A80F3118887
:104F4000E069416D491C4165A9680B2905D00B2119
:104F5000A96069682A680A605160416D51B1491EB3
:104F6000416507D1208B00281ABF606B8068608B79
:104F700080F31188E069C4F8EC0370BD7F490968CB
:104F80000881704730B504467C48056883B095F8C1
:104F90004000C00709D50020019000900023224660
:104FA00040F205210120FCF747FB95F84000C5F8C9
:104FB0006843C00709D5002001900090002300221B
:104FC00040F205210220FCF737FB03B030BD70B57D
:104FD00004466A480668082C0D4604D30C20FDF7E9
:104FE00096FB002070BDFCF758FC06EB8400D0F85F
:104FF000F842002C14BF002DC0F8F852FCF75BFCFF
:10500000204670BD30B55D4D2C6883B04CF6FF3046
:1050100020824FF4FF7060820820206001206060D1
:105020000220E0810F206081A081D4F8F801000403
:1050300040F00100C4F8CC0300F017FCC4F8700382
:10504000D4F80802E8B9FCF728FC2C6894F8400072
:10505000C00709D50020019000900023012240F2F2
:1050600001210120FCF7E8FA0120C4F87403D4F808
:105070006803010018BF8047012105F1180000F006
:10508000DFFB0120C4F87803C4F83C0100F0F4FB16
:1050900004F15000E061E08AD4F8F811D4F8082255
:1050A0006083E08AA4F874004FF6FF7040EA014183
:1050B000E1650321A1654FF4B0712144C4F860118A
:1050C0004FF4B0712144C4F864110021A4F86811B0
:1050D000A4F86A114FF4E8712144C4F8D0114FF4D8
:1050E000E8712144C4F8D4110021A4F8D811A4F81F
:1050F000DA1105E0D368994238BF19462032401EC4
:105100001368002B18BF0028F4D12348C4F84803C3
:10511000C4F838114FF45760C4F850030FF28800F8
:10512000C4F858031D48C4F84C03481CC4F8540381
:105130001B48C4F828034FF4B070C4F830030FF2D2
:105140007800C4F838031748C4F82C03881CC4F846
:1051500034034FF4A0702044C4F840014FF4A07011
:105160002044C4F844010020A4F84801A4F84A01EE
:105170000120C4F84C0103B030BD00000004FF1F43
:1051800091C20200DFC2020099C202009BC202006B
:10519000C9C202006B6174730400008079AD020023
:1051A0000300008035AD02005F6D71785F696E6944
:1051B000745F7461736B00005F6D71785F69646C1C
:1051C000655F7461736B0000000002040CFF020055
:1051D00030B5BC48046883B094F84000C00748BFAD
:1051E000FCF78CFA208B90B10D20FDF790FA94F823
:1051F0004000C00759D500200190009000230D22E7
:1052000040F209110220FCF717FA03B030BDE5693E
:10521000686D10B9E08A80F31188696D6868491C6F
:10522000696529680160486094F84000C00709D5A5
:1052300000200190009000232A4640F20111012035
:10524000FCF7FAF9E869616A814238BF60620220BE
:10525000A860E869416869600A682A600D60456075
:105260000020C5F8B000C5F8B400C5F8B80094F83F
:105270004000C00709D500200190009000230022C3
:1052800040F201110220FCF7D7F926F0D3FEE069C5
:10529000416D51B1491E416507D1208B00281ABFCD
:1052A000606B8068608B80F3118803B030BD70B58F
:1052B00004468448066882B096F84000C0070D4650
:1052C0000BD5002001902B46E069C0890090224652
:1052D0004FF486710120FCF7AFF9A06A40F400405A
:1052E000A0622946206D401C2065204600F08DF804
:1052F00026F092FE96F84000C00709D500200190E4
:105300000090002300224FF486710220FCF794F9EC
:1053100002B070BD70B504466A48066882B096F85F
:105320004000C0070D460BD5206AC08901902B466E
:10533000206D0090224640F20D110120FCF77CF90F
:10534000A06A010411D5216D8D4202D2481B20654F
:105350000BE020F40040A0620021206A2165C18991
:10536000204600F052F826F057FE96F84000C0079D
:1053700009D50020019000900023002240F20D1179
:105380000220FCF759F902B070BDF0B4CE69028971
:105390000468F6890346551C01E0234624686D1E07
:1053A0001BD0E769FF89BE4217D3234624686D1ED0
:1053B00013D0E769FF89BE420FD3234624686D1ED0
:1053C0000BD0E769FF89BE4207D3234624686D1ED0
:1053D00003D0E769FF89BE42DFD21C680C60196008
:1053E0004B606160511C0181F0BC7047016800890D
:1053F000421C4FF0FF3005E0CB69DB89096883422E
:1054000038BF1846521EF7D17047F0B504462D48F4
:10541000066883B0E069C789306A0D4629014942B0
:1054200008448189E061A184A068022840D16068B5
:1054300021680160486096F84000C00709D5002047
:10544000019000900023224640F201110120FCF758
:10545000F3F8E069716A814238BF70620220A0608F
:10546000E069416861600A6822600C604460002065
:10547000C4F8B000C4F8B400C4F8B80096F840000E
:10548000C00709D50020019000900023002240F2BF
:1054900001110220FCF7D0F8F069A04208D1A08CDD
:1054A0007083AF420CD203B0BDE8F04026F0C2BD1D
:1054B000606D28B9204603B0BDE8F040FDF736BD69
:1054C00003B0F0BD0004FF1F10B50C460021A16021
:1054D00014494A68012A06D10968B0FBF1F000219D
:1054E000C4E9000110BD104B1B68D3F8E431022A57
:1054F00009D1A3FB00014FF47A72002300F01EF9DA
:10550000C4E9000110BD4FF47A72B2FBF3F20A60F5
:105510005A43B2F57A7F02D101224A60DCE70222C7
:105520004A60E6E72C8D00200004FF1FF0B4D0E9AC
:105530000045D1E90067A41BBD41C2E90045806870
:105540008968884209D2074B1B68D3F8EC311818D8
:10555000641E65F10005C2E90045401A9060F0BC88
:10556000704700000004FF1F70B505462448066818
:1055700084B00020CDE902000C46D5E90001CDE958
:1055800000016A46D6F8EC11684600F0EDFAA96809
:105590006B460422684600F02FFB6A4642F2107107
:1055A000684600F0E1FAD6F8E4116A46684600F071
:1055B0003DFBD6F8EC116A46684600F037FB6B46B7
:1055C00004220521684600F017FB6A460A21684656
:1055D00000F02CFBDDE902010022914208BF90425D
:1055E00008D10198401E8041C043C00F2070009830
:1055F00004B070BD01202070009804B070BD0000A0
:105600000004FF1F70B505462348066884B00C46A9
:10561000D5E90001CDE900016A460020CDE902008C
:10562000D6F8EC11684600F09FFAA9686B46042290
:10563000684600F0E1FA6A461849684600F094FAB4
:10564000D6F8E4116A46684600F0F0FAD6F8EC1194
:105650006A46684600F0EAFA6B460422052168466D
:1056600000F0CAFA6A460A21684600F0DFFADDE96E
:1056700002010022914208BF904208D10198401EC9
:105680008041C043C00F2070009804B070BD01205D
:105690002070009804B070BD0004FF1F8096980031
:1056A000D0B40A4909688468D1F8EC118C420BD354
:1056B000D0E90067B4FBF1F20023B6185F41C0E9FE
:1056C000006701FB12418160D0BC70470004FF1FDE
:1056D00030B5044689B00D46206804A900F018FBD7
:1056E0006068694600F022FB2A46694604A8FFF775
:1056F00045FA09B030BD000013F0004C03D55B4201
:10570000524263F100039CEA210C00F0178010B5AF
:10571000644603D34942404261F1000100F00EF8B3
:10572000640004D34942404261F10001244203D5A0
:105730005B42524263F1000310BD00001B4213D1D3
:10574000094236D12AB18446B0FBF2F002FB10C206
:10575000704700F017BBFCD30022002370470B00FA
:105760000200002100207047904271EB030CF6D339
:1057700070B5B1FA81F4B3FA83F52C1BA340C4F1E0
:10578000200532FA05F63343A2405FF00046E640BA
:1057900002E05B085FEA3202841A71EB030524BF62
:1057A000204629467641F4D302000B003000002148
:1057B00070BD012ACFD970B5140C20D0B1FA81F494
:1057C000B2FA82F5C4F120046419B4F12006D6D3EC
:1057D000B2405FF00044F440002502E052085FEA66
:1057E0003303C61A71EB020E24BF30467146644182
:1057F0006D41F3D302000B002000290070BD0C4660
:10580000B1FBF2F102FB11452D0445EA1045B5FB51
:10581000F2F402FB145580B240EA0545B5FBF2F004
:1058200002FB105240EA044070BD0000EC46A0E8C4
:10583000F00FA0E80050A0EC108B00207047000093
:10584000002908BF491CB0E8F00FB0E80050B0ECE8
:10585000108BE546080070470549064A0968C1F8FB
:10586000700311681060084670470248006870476E
:105870000004FF1F08ED00E0524800B5006881B049
:10588000D0F80C12082928BF072101D211B9012133
:10589000C0F80C12490101F0E001C182C0226A2166
:1058A000494800F071FA49494FF0FF3008604860FC
:1058B0008860C86001B000BDF0B54248046881B09E
:1058C00000202062D4F83801C51C2801FAF71DFF1A
:1058D000060008BF042072D00521FBF786FC002DCE
:1058E0006AD0D4F80C0242192946521E11F0030363
:1058F00013D06D1E082A3DBF47197F0107F0E0074E
:1059000000273660B7817660F581A2F10102276A2F
:10591000B760266210365B1EEBD189084CD0421965
:10592000521E6D1E082A3DBF43195B0103F0E003C0
:1059300000233660B3817660F581571E236AB36019
:10594000266206F110036D1E082F3DBF47197F0127
:1059500007F0E00700279F811B605B60DD8103F19A
:105960001006276A9F602362971E6D1E082F3DBF99
:1059700047197F0107F0E00C4FF0000CD71E36608E
:105980007660F581A6F80CC0B360266206F11003BC
:105990006D1E082F3DBF47197F0107F0E007002764
:1059A0001B605B60DD819F819E60491E236203F165
:1059B0001006A2F10402B4D1206A6062002001B096
:1059C000F0BD00000004FF1F00E400E080E100E003
:1059D00030B581B042F26600FFF7D0FA0FF2151031
:1059E000FFF7D0FA4FF000510020FAF7F9FDFA2145
:1059F000002000F0E6F9040037D14548FFF72CFFFE
:105A000044484549454A0918904238BF8A4202D263
:105A1000FAF775FE03E04248091AFAF7E9FF414D2B
:105A2000414928600223002205F1080000F0D2F964
:105A300004001AD1C822002105F1080000F00EFA76
:105A400004000ED100220FF2B10105F1080000F0B0
:105A500042FA040005D105F1080000F01EFA040026
:105A600006D005F1080000F0D8F9204601B030BD9D
:105A70002E492A200870012000F0BDFA2C492D483B
:105A80000968C1F8E801C820FEF776FF05F10800B3
:105A900000F010FAFEF77EFF00210FF26100FEF722
:105AA00071FF00F01DFB002001B030BD00B581B0DA
:105AB00000F020FBD8B900F08BFB08B900F0B8FB70
:105AC0001D491E4808601E490FF284000A6800F054
:105AD000F3FB1C490FF280000A6800F0EDFB1A4945
:105AE0000FF27C0001F0F9F801F0F0FE002001B0A7
:105AF00000BD000070470000FEF7E6BD00B585B0B0
:105B00006946124800F0D9F9029805B000BD0000BE
:105B10000000FF1F0000FF1F000004000092002093
:105B20000000FF1FC022FF1F0800030000E0074025
:105B30000004FF1FA0BB0D00202008E000A00FAA5A
:105B4000C0FF0200E4FF0200B4FF0200C822FF1FF2
:105B500069747479613A000069747479653A000077
:105B600065736468633A00002DE9F00384B015465C
:105B70000022CDE90022002461B1D0E900730026A3
:105B8000934208BFB74208D1D0E90273934208BFDD
:105B9000B74202D1CDE9022224E0012923D00268D4
:105BA000A2FB01790022BA1800924F464268A2FB7C
:105BB0000123BE199419019494428468BF41A4FB47
:105BC000016803EBD772B2180292B242C0689241E8
:105BD000A0FB017908EBD27038180390B8428041DD
:105BE00009EBD07468460FC885E80F00204604B062
:105BF000BDE8F0037047000030B450F8044B0C19B6
:105C00008C4243F8044B8941C90F0124022A0AD36C
:105C100050F8045B491943F8041BA9428941C90F94
:105C2000641C9442F4D330BC084670472DE9F04F11
:105C300085B00646934621B94FF0FF3005B0BDE868
:105C4000F08F01295BD0D6E900230024A2465345FA
:105C500008BFA24205D1D6E90223534508BFA2429C
:105C60004DD00022CDE90222CDE90022B068F368D0
:105C700015180C4643EB0209494622460023FFF75C
:105C80005DFD039A8A1803924946029A00238718F9
:105C900028462246FFF752FD029770681AEB00086B
:105CA00042EB0A09494622460023FFF747FDCA197D
:105CB00002924946019A0023851840462246FFF782
:105CC0003DFD019530681AEB000642EB0A073946A4
:105CD00022460023FFF732FD4A190192009A8018EC
:105CE000009068460FC88BE80F00304639462246C0
:105CF0000023FFF723FD104605B0BDE8F08F96E8BE
:105D00000F008BE80F00002005B0BDE8F08F000009
:105D100000228A60044A1268D2F8E421A2FB002320
:105D2000C1E90023704700BF0004FF1FF0B50C4617
:105D300013490D68D5F8E411A1FB006730463946D8
:105D40004FF47A720023FFF7F9FCC4E900014FF425
:105D50007A72304639460023FFF7F0FCD5F8EC01A3
:105D6000A0FB026700FB037716F5FA7047F100010C
:105D70004FF47A720023FFF7E1FCA060F0BD00BF92
:105D80000004FF1F7047000062F30F2262F31F42FE
:105D900000B500BF130096469446103928BFA0E80E
:105DA0000C50FAD85FEA417C28BF0CC048BF40F8CD
:105DB000042BC90728BF20F8022B48BF00F8012B8D
:105DC00000BD10B5FBF753FE040008BF01F0AAFDAB
:105DD000204610BD10B40C460028114614BF002CFC
:105DE0000C2081B01A4615D023681BB901B010BC35
:105DF0000120704704600024C0E9044484604460CA
:105E0000C4608461C4610462446203681B6801B0B9
:105E100010BC184701B010BC704710B504001CBF7F
:105E20002168002901D10C2010BD486808B9012063
:105E300010BD09692046884778B92168496820461D
:105E4000884750B920600021C4E904016060A06067
:105E5000E060A061E0612062606210BD70B5040086
:105E60001CBF206800280D46164600D00EB90C2035
